:020000040800F2
:10000000300500209D0100086F0E00086B0E0008EF
:100010006D0E0008B902000835100008000000004D
:10002000000000000000000000000000730E000847
:10003000BB02000800000000710E0008750E0008E9
:10004000C1010008C1010008C1010008C101000888
:10005000C1010008C1010008C1010008C101000878
:10006000C1010008C1010008C1010008C101000868
:10007000C1010008C1010008C1010008C101000858
:10008000C1010008C1010008C1010008C101000848
:10009000C1010008C1010008C1010008C101000838
:1000A000C1010008C1010008C1010008C101000828
:1000B000C1010008C1010008C1010008C101000818
:1000C000C1010008C1010008C1010008C101000808
:1000D000C101000829100008C1010008C101000881
:1000E000C1010008C1010008C1010008C1010008E8
:1000F000C1010008C1010008C1010008C1010008D8
:10010000C1010008C1010008C1010008C1010008C7
:10011000C1010008C1010008C1010008C1010008B7
:10012000C1010008C1010008C1010008C1010008A7
:10013000C1010008C1010008C1010008C101000897
:10014000C1010008C1010008C1010008C101000887
:10015000C1010008C1010008C1010008C101000877
:10016000C1010008C1010008C1010008C101000867
:10017000C1010008C1010008C10100080000000021
:10018000C1010008C1010008DFF80CD000F082F8BE
:10019000004800473913000830050020094801686D
:1001A00041F4700101600848804708480047FEE7B5
:1001B000FEE7FEE7FEE7FEE7FEE7FEE7FEE7FEE717
:1001C000FEE7000088ED00E0790E000889010008D4
:1001D0002DE9F05F0546002092469B46884606467C
:1001E000814640241BE0284641464746224600F00F
:1001F00041F853465A46C01A914110D31146184649
:10020000224600F028F82D1A67EB01084F462246D7
:100210000120002100F01FF817EB00094E41201EBD
:10022000A4F10104DFDC484631462A464346BDE8D6
:10023000F09FD2B201E000F8012B491EFBD27047BB
:100240000022F6E710B513460A4604461946FFF7A2
:10025000F0FF204610BD202A04DB203A00FA02F10C
:10026000002070479140C2F1200320FA03F31943A4
:1002700090407047202A04DB203A21FA02F0002146
:10028000704721FA02F3D040C2F1200291400843A6
:1002900019467047064C074D06E0E06840F0010340
:1002A00094E8070098471034AC42F6D3FFF770FF8C
:1002B0006415000884150008FEE770472DE9F04139
:1002C0000446A76D00F050F9054694F83500002665
:1002D000022806D08020606584F834600120BDE8E3
:1002E000F0812068016821F01601016020684169F1
:1002F00021F080014161206C08B9A06C20B1206818
:10030000016821F0080101602068016821F0010105
:1003100001600BE000F028F9401B052806D92020D9
:1003200034342062267003206070D8E720680068AB
:10033000C007EFD134343F2094F828108840B860CB
:100340002670012060700020C9E790F8351002295E
:1003500003D08021416501207047052180F83510C8
:100360000068016821F00101016000207047000071
:100370002DE9F84F0022DFF89C914FF0010809F1B8
:10038000040A03274FF00F0C0AF1040B08FA02F5D8
:100390000B682B40AB4272D10C7904F00304012CA2
:1003A00001D0022C15D18668540007FA04FE26EA13
:1003B0000E06D1F80CE00EFA04FE4EEA060EC0F866
:1003C00008E04468AC430D79C5F30015954025431A
:1003D00045600C79E443A40708D0C568540007FAC7
:1003E00004F6B5438E68A6402E43C6600C7904F02F
:1003F0000304022C11D1D40800EB8406356A54079B
:10040000E40E0CFA04FE25EA0E05D1F810E00EFA0F
:1004100004FE4EEA050EC6F820E00568540007FA0F
:1004200004F6B5430E7906F00306A6402E43066097
:100430004C68E40067D5384C256845F48045256054
:10044000246804F480440094344C22F003052E19EF
:10045000D6F8085894074FEA147E0CFA0EF4A54318
:100460002F4CA04201D1002424E02E4CA04201D107
:1004700001241FE02C4CA04202D102241AE042E0E9
:100480002A4CA04201D1032414E0294CA04201D1FE
:1004900004240FE0274CA04201D105240AE0264C99
:1004A000A04201D1062405E0244CA04201D107243A
:1004B00000E0082404FA0EF42C43C6F80848D9F8E2
:1004C00000409C434D68ED0300D51C43C9F8004033
:1004D000DAF800409C434D68AD0300D51C43CAF8D0
:1004E0000040DBF800409C434D68ED0200D51C4302
:1004F000CBF80040074D0C352C689C434E68B60283
:1005000000D51C432C60521C102AFFF43FAFBDE8FD
:10051000F88F0000003C01404438024000300140A8
:10052000000002400004024000080240000C0240AB
:10053000001002400014024000180240001C02405B
:100540000069084201D00120704700207047002A4E
:1005500001D08161704709048161704701480068DA
:10056000000C7047002004E00148806870470000DC
:1005700014000020024881680278114481607047AD
:100580001400002010B50948016841F400710160B1
:10059000016841F480610160052000F04DF80F20F2
:1005A00000F006F800F026F8002010BD003C0240E4
:1005B00070B504460D4D4FF47A712878B1FBF0F018
:1005C0000B490968B1FBF0F000F002FB08B1012013
:1005D00070BD102C07D200222146501E00F00CF8EE
:1005E0006C60002070BD012070BD00001400002070
:1005F0000800002070470000F0B40D460D4B1B684A
:10060000C3F30223C3F10704042C00D90424191DE9
:10061000072901D2002300E0DB1E012606FA04F1BF
:10062000491E294099409E40761E16403143F0BC39
:1006300000F001BD0CED00E000F00701054A106874
:100640004FF6FF03184040EA0120034908431060B9
:10065000704700000CED00E00000FA052DE9F047BE
:1006600004460D46002C13D0DFF82891D9F800007D
:10067000EFB200F00700A8420CD289F80070D9F858
:10068000000000F00700A84204D00120BDE8F08778
:100690000120FBE72068404E810712D5400703D5B3
:1006A000306840F4E05030602078000703D53068AF
:1006B00040F4604030603068A16820F0F0000843EA
:1006C00030602078C00731D033496068083901288C
:1006D00008D002280BD0032809D0096889070BD459
:1006E0000120D3E70968890306D40120CEE7096811
:1006F000890101D40120C9E7316821F003010143D8
:100700003160FFF731FF804641F2883A07E0FFF79A
:100710002BFFA0EB0800504501D90320B6E7306855
:10072000616800F00C00B0EB810FF0D1D9F8000047
:1007300000F00700A84209D989F80070D9F8000034
:1007400000F00700A84201D001209FE72078400771
:1007500005D53068E16820F4E05008433060207827
:10076000000706D53068216920F4604040EAC100E6
:10077000306000F019F83168084AC1F30311515C88
:10078000C8400749086007480068FFF711FF0020CC
:100790007CE70000003C0240083802405415000885
:1007A000080000201800002010B51748006810F05D
:1007B0000C01164816D04310042912D0082911D173
:1007C000114C241F216801F03F02216849020AD51B
:1007D0002068C0F38810A0FB03010023FFF7F8FC9A
:1007E00009E0184610BD21680023C1F38811A1FB60
:1007F0000001FFF7EDFC2168C1F30141491C4900EC
:10080000B0FBF1F010BD0000083802400024F400F5
:100810002DE9F84F0446002C13D02078DFF8A08390
:10082000C007A8F1040556D008F104000168C1F31F
:10083000810101290CD00068C0F38100022803D097
:100840000DE00120BDE8F88FD8F80000400206D581
:10085000286880033FD5606870BB0120F2E76068BC
:10086000B0F5803F10D0B0F5A02F12D0286820F44A
:1008700080302860286820F4802028606068E0B11B
:10088000FFF772FE064614E0286840F480302860C6
:10089000F4E7286840F480202860286840F480301D
:1008A0002860EBE7FFF760FE801B642801D9032076
:1008B000C8E728688003F5D50DE0FFF755FE06462A
:1008C00006E0FFF751FE801B642801D90320B9E739
:1008D00028688003F5D42078BA4F80074FF00009CC
:1008E00048D5B748001D016811F00C0F08D000680A
:1008F000C0F38100022813D1D8F8000040020FD4C1
:100900002868800704D5E068012801D0012099E714
:100910002868216920F0F80040EAC100286029E039
:10092000E068B8B101203860FFF71EFE064606E019
:10093000FFF71AFE801B022801D9032082E72868EE
:100940008007F5D52868216920F0F80040EAC10049
:1009500028600FE0C7F80090FFF706FE064606E0A5
:10096000FFF702FE801B022801D903206AE72868EE
:100970008007F5D42078000729D5DFF844A29248F3
:1009800061690AF1700A89B101210160FFF7ECFD8C
:10099000064606E0FFF7E8FD801B022801D9032088
:1009A00050E7DAF800008007F4D510E0C0F80090B6
:1009B000FFF7DAFD064606E0FFF7D6FD801B0228AA
:1009C00001D903203EE7DAF800008007F4D420784C
:1009D000400778D54FF0000A79483C300068C000E5
:1009E0000BD477483C30016841F0805101600068C9
:1009F00000F0805000904FF0010ADFF8D0B1DBF832
:100A00000000C00514D4DBF8000040F48070CBF87F
:100A10000000FFF7A9FD064606E0FFF7A5FD801BD5
:100A2000022801D903200DE7DBF80000C005F4D54A
:100A3000634EA0686C3601280FD0052812D03068AC
:100A400020F001003060306820F004003060A068C1
:100A5000F8B1FFF789FD834617E0306840F00100E8
:100A60003060F4E7306840F004003060306840F0F7
:100A700001003060EBE7FFF777FDA0EB0B0141F2DF
:100A80008830814201D90320DCE630688007F2D546
:100A900010E0FFF769FD834609E0FFF765FDA0EB75
:100AA0000B0141F28830814201D90320CAE6306847
:100AB0008007F2D4BAF1010F05D141483C300168FA
:100AC00021F080510160A069C0B33D49091D09684A
:100AD0004FF0FF36C1F38101022946D0022805D02C
:100AE000C7F86090FFF740FD04463AE0C7F8609011
:100AF000FFF73AFD814607E0FFF736FDA0EB09005E
:100B0000022801D903209DE628688001F4D4D4E9A5
:100B100007010843616AA26A890106EB520241EAB1
:100B20000241084394F82C1040EA0160C8F8000024
:100B300001203866FFF718FD044607E03DE0FFF7A7
:100B400013FD001B022801D903207BE628688001E1
:100B5000F5D532E0FFF708FD001B022801D903207C
:100B600070E628688001F5D427E0012823D0D8F862
:100B70000000E26900F4800191421AD1226A00F07B
:100B80003F01914215D147F6C071626A0140B1EB55
:100B9000821F0ED1A26A00F4403106EB5202B1EB83
:100BA000024F06D194F82C1000F07060B0EB016F8A
:100BB00003D0012046E6012044E6002042E6000082
:100BC0000438024000004742800E47420070004057
:100BD00010B5401EB0F1807F01D3012010BD4FF051
:100BE000E02460610F21601700F025FA0020A06169
:100BF00007202061002010BD70477047F8B50446FB
:100C000022681068D168536900F00F05002D08D1E3
:100C1000860606D58E0604D52046BDE8F84000F0CD
:100C200060B90026002D60D003F0010501F4907733
:100C30002F435AD0C20705D0CA0503D5226C42F013
:100C400001022264420705D5DA0703D0226C42F084
:100C500002022264820705D5DA0703D0226C42F033
:100C600004022264020707D501F020022A4303D0C0
:100C7000226C42F008022264226C002A2BD08006EB
:100C800004D5880602D5204600F02BF9206840697B
:100C9000C0F38010216C090700D408B3204600F08F
:100CA000FBF820684169490616D5416921F04001E9
:100CB0004161A06B60B144490165A06BFFF745FB42
:100CC000002808D0A06B016D01B0BDE8F0400847D6
:100CD0002046FFF792FFF8BD2046FFF78EFFF8BDD4
:100CE0002046FFF78AFF2664F8BD236B012B58D1FD
:100CF000C30656D5CB0654D510685068009050698D
:100D00004FF0200340062ED5A16B0868406880B2E2
:100D10000028E9D0A58D8542E6D9E085C869B0F5FF
:100D2000807F18D0D06820F48070D060206841693E
:100D300021F0010141612068416921F040014161D8
:100D400084F83E3026632068C16821F01001C1603C
:100D5000A06BFFF7B3FAA08DE18D401A81B2204657
:100D6000FFF74AFFF8BDA08DE18D401A81B2E08DFA
:100D70000028F7D00029F5D0D06820F49070D0601A
:100D80002068426922F00102426184F83E30266305
:100D90002068C26822F01002C2602046FFF72CFFD4
:100DA000F8BD020606D50A0604D52046BDE8F8407F
:100DB00000F00BB94006F3D54806F1D52046BDE852
:100DC000F84000F081B80000890E000890F83E302D
:100DD000202B01D00220704759B152B190F83C301D
:100DE000012B08D0012380F83C300023036300F07E
:100DF000D1B80120704702207047000030B400686D
:100E00001649884228D1164A5088010419D411463F
:100E1000440409784FF0000307D50A2901D0538014
:100E20000FE040F4004050800BE00D2910D00D4D34
:100E3000C0F30D042955401C80B25080C72800D94A
:100E400053800848012230BC0549C830FFF7BEBFB7
:100E500040F480405080F4E730BC704700100140FF
:100E600010000020240000207047FEE7FEE77047D6
:100E700070477047FFF77EBB0248016841F470017C
:100E80000160704788ED00E010B5806B0021C185DE
:100E9000C184FFF7B2FE10BD0168CA6822F49072E7
:100EA000CA6001684A6922F001024A61016B0129A6
:100EB00004D10168CA6822F01002CA60202180F8BB
:100EC0003E1000210163704710B50168CA6822F026
:100ED0004002CA60202180F83D10FFF7C5FF0020C6
:100EE00010BD10B5044694F83E00222801D002201F
:100EF00010BDA1684FF48052914201D1206920B108
:100F0000A06A91421DD051B10BE0A06A21684968E6
:100F1000C1F308010180A06A801CA06209E0216978
:100F200079B12168496801F07F010170A06A401C15
:100F3000A062E08D401E0004000CE08505D000207A
:100F400010BD216849680170F0E72068C16821F090
:100F50002001C1602068C16821F48071C1602068EF
:100F6000416921F001014161202084F83E00206B9D
:100F7000012805D02046FFF741FF0020206310BD67
:100F80002068C16821F01001C160A18D2046FFF7E3
:100F900033FEF2E781628285C2850021016422224C
:100FA00080F83E2080F83C100168CA6842F48072E4
:100FB000CA6001684A6942F001024A610068C1687A
:100FC00041F02001C1600020704790F83D102129B8
:100FD00001D0022070478168B1F5805F01D10169BD
:100FE00061B1016A4A1C0262026809785160C18CD1
:100FF000491E0904090CC1840AD013E0016A026881
:101000000988C1F308015160016A891C0162EEE799
:101010000168CA6822F08002CA600068C16841F0B5
:101020004001C160002070470148FFF7E7BD0000A4
:10103000EC000020FEE70907090E002804DB00F1A0
:10104000E02080F80014704700F00F0000F1E0206D
:1010500080F8141D704702E008C8121F08C1002A5A
:10106000FAD170477047002001E001C1121F002A29
:10107000FBD1704710B50C4C00224FF40071204694
:10108000FFF765FA002221152046FFF760FA0022DB
:1010900001210648FFF75BFA0022BDE8104002215B
:1010A0000348FFF754BA0000001402400004024055
:1010B0000010024001490860704700000C00002049
:1010C0004FF47A71484300F001B8000070B5002178
:1010D0004FF0E0256C690A4A12685043AB69AA696F
:1010E0009A42FCD003D2A3EB0203194403E0A4EB21
:1010F00002063344194413468142F0D370BD000008
:101100000C000020F0B587B000252448016841F0AC
:1011100010010160016801F010010191016841F0C6
:1011200010010160016801F010010191016841F0B6
:1011300010010160016801F010010191016841F0A6
:1011400001010160006800F0010001901020029090
:1011500003950126049602240594114F02A93846EE
:10116000FFF706F90820029003950496059402A95A
:101170003846FFF7FDF80420029003950496059485
:1011800002A93846FFF7F4F80296039504940594F3
:1011900002A90448FFF7ECF807B0F0BD3038024070
:1011A00000100240000002402DE9F0410024012619
:1011B0002C4D002800D02E702878DFF8AC802B4F03
:1011C000A0B110213846FFF7BBF9B0B1082138466D
:1011D000FFF7B6F988B104213846FFF7B1F960B1DD
:1011E00001214046FFF7ACF9012806D0102138460E
:1011F000FFF7A6F901281FD030E00A20FFF760FFB3
:101200000020287010213846FFF79AF900B9012410
:1012100008213846FFF794F900B902240421384622
:10122000FFF78EF900B9032401214046FFF788F942
:10123000012813D1042411E008213846FFF780F972
:1012400001280BD104213846FFF77AF9012805D18E
:1012500001214046FFF774F900B92E702046BDE821
:10126000F081000020000020000002400010024039
:101270002DE9F04186B02C48016841F02001016061
:10128000016801F020010091016841F02001016036
:10129000016801F020010091016841F00201016044
:1012A000016801F002010091016841F01001016044
:1012B000006800F0100000904FF4007601960124C1
:1012C0000294039402270497DFF8608001A9404646
:1012D000FFF74EF8A502019501A94046FFF748F82F
:1012E0000194134C01A92046FFF742F80197114FD2
:1012F00001A93846FFF73CF8012231464046FFF786
:1013000026F9012229464046FFF721F9012211461C
:101310002046FFF71CF9012202213846FFF717F992
:1013200006B0BDE8F08100003038024000140240F1
:1013300000040240001002400025A846FFF722F9F1
:101340000723022208214FF4A87000F0A7F8A82074
:10135000FFF7B0FEFFF78CFFFFF7D4FE214C002211
:101360004FF400712046FFF7F2F8002221152046C5
:10137000FFF7EDF8002201211B48FFF7E8F80022F3
:1013800002211A48FFF7E3F8194F05260020FFF75E
:101390000BFF044644450AD04CB1032C03D0042C67
:1013A00002D1002500E001250A20FFF789FEA046B2
:1013B00035B1786890FBF6F106FB110048B10AE000
:1013C000786890FBF6F106FB110020B900F012F8E6
:1013D00001E000F043F87868401C78606420FFF773
:1013E0006FFED3E7001402400004024000100240E8
:1013F0000000002010B5FFF73DFE144C1448216892
:1014000031B1012909D002290CD0032910D014E0F0
:1014100001225102FFF79BF80FE001229102FFF732
:1014200096F80AE0012211460A48FFF790F804E016
:10143000012202210848FFF78AF82068401C20603A
:10144000042801DB0020206010BD00000000002007
:1014500000140240000402400010024070B5FFF783
:1014600009FE0C4C0C4D216821B9012202212846AD
:10147000FFF76DF82168012904D1002202212846D6
:10148000FFF765F82068401C2060022801DB00207F
:10149000206070BD00000020001002402DE9F043E4
:1014A00093B006460F4690469946302107A8FEF7AE
:1014B000C7FE142102A8FEF7C3FE0025224C2068B7
:1014C00040F080502060206800F0805001901F4C58
:1014D000206840F480402060206800F48040019043
:1014E000012007900004089002240D9480010E90C2
:1014F00010960F97CDF84480CDF8489007A8FFF7D5
:1015000087F918B1012013B0BDE8F0830F200290D5
:10151000039404954FF4A05005904FF4805006902A
:10152000052102A8FFF79AF808B10120EBE7FFF7C1
:1015300015F841F20101884204D10548016841F4DF
:10154000807101600020DEE74038024000700040FA
:10155000003C024000000000000000000102030403
:101560000607080984150008000000202400000078
:1015700056100008A8150008240000200C050000E3
:101580006610000800000000000000000024F400C5
:10159000000000000000000001000000100000003A
:0815A000000000000100000042
:040000050800018965
:00000001FF
